{
  "contractName": "MentaportMint",
  "abi": [
    {
      "inputs": [
        {
          "internalType": "string",
          "name": "_name",
          "type": "string"
        },
        {
          "internalType": "string",
          "name": "_symbol",
          "type": "string"
        },
        {
          "internalType": "uint256",
          "name": "_maxSupply",
          "type": "uint256"
        },
        {
          "internalType": "address",
          "name": "_admin",
          "type": "address"
        },
        {
          "internalType": "address",
          "name": "_minter",
          "type": "address"
        },
        {
          "internalType": "address",
          "name": "_signer",
          "type": "address"
        }
      ],
      "stateMutability": "nonpayable",
      "type": "constructor"
    },
    {
      "anonymous": false,
      "inputs": [
        {
          "indexed": true,
          "internalType": "address",
          "name": "owner",
          "type": "address"
        },
        {
          "indexed": true,
          "internalType": "address",
          "name": "approved",
          "type": "address"
        },
        {
          "indexed": true,
          "internalType": "uint256",
          "name": "tokenId",
          "type": "uint256"
        }
      ],
      "name": "Approval",
      "type": "event"
    },
    {
      "anonymous": false,
      "inputs": [
        {
          "indexed": true,
          "internalType": "address",
          "name": "owner",
          "type": "address"
        },
        {
          "indexed": true,
          "internalType": "address",
          "name": "operator",
          "type": "address"
        },
        {
          "indexed": false,
          "internalType": "bool",
          "name": "approved",
          "type": "bool"
        }
      ],
      "name": "ApprovalForAll",
      "type": "event"
    },
    {
      "anonymous": false,
      "inputs": [
        {
          "indexed": false,
          "internalType": "uint256",
          "name": "_fromTokenId",
          "type": "uint256"
        },
        {
          "indexed": false,
          "internalType": "uint256",
          "name": "_toTokenId",
          "type": "uint256"
        }
      ],
      "name": "BatchMetadataUpdate",
      "type": "event"
    },
    {
      "anonymous": false,
      "inputs": [
        {
          "indexed": true,
          "internalType": "address",
          "name": "sender",
          "type": "address"
        },
        {
          "indexed": true,
          "internalType": "address",
          "name": "account",
          "type": "address"
        }
      ],
      "name": "MentaportAccount",
      "type": "event"
    },
    {
      "anonymous": false,
      "inputs": [
        {
          "indexed": false,
          "internalType": "uint256",
          "name": "_tokenId",
          "type": "uint256"
        }
      ],
      "name": "MetadataUpdate",
      "type": "event"
    },
    {
      "anonymous": false,
      "inputs": [
        {
          "indexed": true,
          "internalType": "address",
          "name": "admin",
          "type": "address"
        },
        {
          "indexed": false,
          "internalType": "uint256",
          "name": "mintAmount",
          "type": "uint256"
        },
        {
          "indexed": true,
          "internalType": "address",
          "name": "receiver",
          "type": "address"
        }
      ],
      "name": "MintForAddress",
      "type": "event"
    },
    {
      "anonymous": false,
      "inputs": [
        {
          "indexed": false,
          "internalType": "address",
          "name": "sender",
          "type": "address"
        },
        {
          "indexed": false,
          "internalType": "uint256",
          "name": "tokenId",
          "type": "uint256"
        }
      ],
      "name": "MintLocation",
      "type": "event"
    },
    {
      "anonymous": false,
      "inputs": [
        {
          "indexed": true,
          "internalType": "address",
          "name": "previousOwner",
          "type": "address"
        },
        {
          "indexed": true,
          "internalType": "address",
          "name": "newOwner",
          "type": "address"
        }
      ],
      "name": "OwnershipTransferred",
      "type": "event"
    },
    {
      "anonymous": false,
      "inputs": [
        {
          "indexed": false,
          "internalType": "address",
          "name": "account",
          "type": "address"
        }
      ],
      "name": "Paused",
      "type": "event"
    },
    {
      "anonymous": false,
      "inputs": [
        {
          "indexed": true,
          "internalType": "address",
          "name": "sender",
          "type": "address"
        }
      ],
      "name": "Reveal",
      "type": "event"
    },
    {
      "anonymous": false,
      "inputs": [
        {
          "indexed": true,
          "internalType": "bytes32",
          "name": "role",
          "type": "bytes32"
        },
        {
          "indexed": true,
          "internalType": "bytes32",
          "name": "previousAdminRole",
          "type": "bytes32"
        },
        {
          "indexed": true,
          "internalType": "bytes32",
          "name": "newAdminRole",
          "type": "bytes32"
        }
      ],
      "name": "RoleAdminChanged",
      "type": "event"
    },
    {
      "anonymous": false,
      "inputs": [
        {
          "indexed": true,
          "internalType": "bytes32",
          "name": "role",
          "type": "bytes32"
        },
        {
          "indexed": true,
          "internalType": "address",
          "name": "account",
          "type": "address"
        },
        {
          "indexed": true,
          "internalType": "address",
          "name": "sender",
          "type": "address"
        }
      ],
      "name": "RoleGranted",
      "type": "event"
    },
    {
      "anonymous": false,
      "inputs": [
        {
          "indexed": true,
          "internalType": "bytes32",
          "name": "role",
          "type": "bytes32"
        },
        {
          "indexed": true,
          "internalType": "address",
          "name": "account",
          "type": "address"
        },
        {
          "indexed": true,
          "internalType": "address",
          "name": "sender",
          "type": "address"
        }
      ],
      "name": "RoleRevoked",
      "type": "event"
    },
    {
      "anonymous": false,
      "inputs": [
        {
          "indexed": true,
          "internalType": "address",
          "name": "admin",
          "type": "address"
        },
        {
          "indexed": false,
          "internalType": "string",
          "name": "message",
          "type": "string"
        }
      ],
      "name": "RuleUpdate",
      "type": "event"
    },
    {
      "anonymous": false,
      "inputs": [
        {
          "indexed": false,
          "internalType": "uint256",
          "name": "cost",
          "type": "uint256"
        }
      ],
      "name": "SetCost",
      "type": "event"
    },
    {
      "anonymous": false,
      "inputs": [
        {
          "indexed": false,
          "internalType": "uint256",
          "name": "newmaxMintAmount",
          "type": "uint256"
        }
      ],
      "name": "SetMaxMintAmount",
      "type": "event"
    },
    {
      "anonymous": false,
      "inputs": [
        {
          "indexed": true,
          "internalType": "address",
          "name": "admin",
          "type": "address"
        },
        {
          "indexed": false,
          "internalType": "uint256",
          "name": "state",
          "type": "uint256"
        },
        {
          "indexed": false,
          "internalType": "string",
          "name": "message",
          "type": "string"
        }
      ],
      "name": "StateUpdate",
      "type": "event"
    },
    {
      "anonymous": false,
      "inputs": [
        {
          "indexed": true,
          "internalType": "address",
          "name": "from",
          "type": "address"
        },
        {
          "indexed": true,
          "internalType": "address",
          "name": "to",
          "type": "address"
        },
        {
          "indexed": true,
          "internalType": "uint256",
          "name": "tokenId",
          "type": "uint256"
        }
      ],
      "name": "Transfer",
      "type": "event"
    },
    {
      "anonymous": false,
      "inputs": [
        {
          "indexed": false,
          "internalType": "address",
          "name": "account",
          "type": "address"
        }
      ],
      "name": "Unpaused",
      "type": "event"
    },
    {
      "anonymous": false,
      "inputs": [],
      "name": "Withdraw",
      "type": "event"
    },
    {
      "inputs": [],
      "name": "CONTRACT_ADMIN",
      "outputs": [
        {
          "internalType": "bytes32",
          "name": "",
          "type": "bytes32"
        }
      ],
      "stateMutability": "view",
      "type": "function"
    },
    {
      "inputs": [],
      "name": "CONTRACT_ROLE",
      "outputs": [
        {
          "internalType": "bytes32",
          "name": "",
          "type": "bytes32"
        }
      ],
      "stateMutability": "view",
      "type": "function"
    },
    {
      "inputs": [],
      "name": "DEFAULT_ADMIN_ROLE",
      "outputs": [
        {
          "internalType": "bytes32",
          "name": "",
          "type": "bytes32"
        }
      ],
      "stateMutability": "view",
      "type": "function"
    },
    {
      "inputs": [],
      "name": "MENTAPORT_ADMIN",
      "outputs": [
        {
          "internalType": "bytes32",
          "name": "",
          "type": "bytes32"
        }
      ],
      "stateMutability": "view",
      "type": "function"
    },
    {
      "inputs": [],
      "name": "MENTAPORT_ROLE",
      "outputs": [
        {
          "internalType": "bytes32",
          "name": "",
          "type": "bytes32"
        }
      ],
      "stateMutability": "view",
      "type": "function"
    },
    {
      "inputs": [],
      "name": "MINTER_ROLE",
      "outputs": [
        {
          "internalType": "bytes32",
          "name": "",
          "type": "bytes32"
        }
      ],
      "stateMutability": "view",
      "type": "function"
    },
    {
      "inputs": [],
      "name": "SIGNER_ROLE",
      "outputs": [
        {
          "internalType": "bytes32",
          "name": "",
          "type": "bytes32"
        }
      ],
      "stateMutability": "view",
      "type": "function"
    },
    {
      "inputs": [
        {
          "internalType": "address",
          "name": "to",
          "type": "address"
        },
        {
          "internalType": "uint256",
          "name": "tokenId",
          "type": "uint256"
        }
      ],
      "name": "approve",
      "outputs": [],
      "stateMutability": "nonpayable",
      "type": "function"
    },
    {
      "inputs": [
        {
          "internalType": "address",
          "name": "owner",
          "type": "address"
        }
      ],
      "name": "balanceOf",
      "outputs": [
        {
          "internalType": "uint256",
          "name": "",
          "type": "uint256"
        }
      ],
      "stateMutability": "view",
      "type": "function"
    },
    {
      "inputs": [
        {
          "internalType": "address",
          "name": "_newAddress",
          "type": "address"
        }
      ],
      "name": "changeMentaportAccount",
      "outputs": [],
      "stateMutability": "nonpayable",
      "type": "function"
    },
    {
      "inputs": [],
      "name": "cost",
      "outputs": [
        {
          "internalType": "uint256",
          "name": "",
          "type": "uint256"
        }
      ],
      "stateMutability": "view",
      "type": "function"
    },
    {
      "inputs": [
        {
          "internalType": "uint256",
          "name": "tokenId",
          "type": "uint256"
        }
      ],
      "name": "getApproved",
      "outputs": [
        {
          "internalType": "address",
          "name": "",
          "type": "address"
        }
      ],
      "stateMutability": "view",
      "type": "function"
    },
    {
      "inputs": [
        {
          "internalType": "bytes32",
          "name": "role",
          "type": "bytes32"
        }
      ],
      "name": "getRoleAdmin",
      "outputs": [
        {
          "internalType": "bytes32",
          "name": "",
          "type": "bytes32"
        }
      ],
      "stateMutability": "view",
      "type": "function"
    },
    {
      "inputs": [
        {
          "internalType": "bytes32",
          "name": "role",
          "type": "bytes32"
        },
        {
          "internalType": "address",
          "name": "account",
          "type": "address"
        }
      ],
      "name": "grantRole",
      "outputs": [],
      "stateMutability": "nonpayable",
      "type": "function"
    },
    {
      "inputs": [
        {
          "internalType": "bytes32",
          "name": "role",
          "type": "bytes32"
        },
        {
          "internalType": "address",
          "name": "account",
          "type": "address"
        }
      ],
      "name": "hasRole",
      "outputs": [
        {
          "internalType": "bool",
          "name": "",
          "type": "bool"
        }
      ],
      "stateMutability": "view",
      "type": "function"
    },
    {
      "inputs": [
        {
          "internalType": "address",
          "name": "owner",
          "type": "address"
        },
        {
          "internalType": "address",
          "name": "operator",
          "type": "address"
        }
      ],
      "name": "isApprovedForAll",
      "outputs": [
        {
          "internalType": "bool",
          "name": "",
          "type": "bool"
        }
      ],
      "stateMutability": "view",
      "type": "function"
    },
    {
      "inputs": [],
      "name": "isStaticAssets",
      "outputs": [
        {
          "internalType": "bool",
          "name": "",
          "type": "bool"
        }
      ],
      "stateMutability": "view",
      "type": "function"
    },
    {
      "inputs": [
        {
          "internalType": "address",
          "name": "_account",
          "type": "address"
        },
        {
          "internalType": "uint256",
          "name": "_timestamp",
          "type": "uint256"
        },
        {
          "internalType": "uint256",
          "name": "_rule",
          "type": "uint256"
        },
        {
          "internalType": "bytes",
          "name": "_signature",
          "type": "bytes"
        }
      ],
      "name": "isValidSigner",
      "outputs": [
        {
          "internalType": "bool",
          "name": "",
          "type": "bool"
        }
      ],
      "stateMutability": "view",
      "type": "function"
    },
    {
      "inputs": [],
      "name": "maxMintAmount",
      "outputs": [
        {
          "internalType": "uint256",
          "name": "",
          "type": "uint256"
        }
      ],
      "stateMutability": "view",
      "type": "function"
    },
    {
      "inputs": [],
      "name": "maxSupply",
      "outputs": [
        {
          "internalType": "uint256",
          "name": "",
          "type": "uint256"
        }
      ],
      "stateMutability": "view",
      "type": "function"
    },
    {
      "inputs": [],
      "name": "name",
      "outputs": [
        {
          "internalType": "string",
          "name": "",
          "type": "string"
        }
      ],
      "stateMutability": "view",
      "type": "function"
    },
    {
      "inputs": [],
      "name": "owner",
      "outputs": [
        {
          "internalType": "address",
          "name": "",
          "type": "address"
        }
      ],
      "stateMutability": "view",
      "type": "function"
    },
    {
      "inputs": [
        {
          "internalType": "uint256",
          "name": "tokenId",
          "type": "uint256"
        }
      ],
      "name": "ownerOf",
      "outputs": [
        {
          "internalType": "address",
          "name": "",
          "type": "address"
        }
      ],
      "stateMutability": "view",
      "type": "function"
    },
    {
      "inputs": [],
      "name": "pause",
      "outputs": [],
      "stateMutability": "nonpayable",
      "type": "function"
    },
    {
      "inputs": [],
      "name": "paused",
      "outputs": [
        {
          "internalType": "bool",
          "name": "",
          "type": "bool"
        }
      ],
      "stateMutability": "view",
      "type": "function"
    },
    {
      "inputs": [],
      "name": "renounceOwnership",
      "outputs": [],
      "stateMutability": "nonpayable",
      "type": "function"
    },
    {
      "inputs": [
        {
          "internalType": "bytes32",
          "name": "role",
          "type": "bytes32"
        },
        {
          "internalType": "address",
          "name": "account",
          "type": "address"
        }
      ],
      "name": "renounceRole",
      "outputs": [],
      "stateMutability": "nonpayable",
      "type": "function"
    },
    {
      "inputs": [
        {
          "internalType": "bytes32",
          "name": "role",
          "type": "bytes32"
        },
        {
          "internalType": "address",
          "name": "account",
          "type": "address"
        }
      ],
      "name": "revokeRole",
      "outputs": [],
      "stateMutability": "nonpayable",
      "type": "function"
    },
    {
      "inputs": [
        {
          "internalType": "address",
          "name": "from",
          "type": "address"
        },
        {
          "internalType": "address",
          "name": "to",
          "type": "address"
        },
        {
          "internalType": "uint256",
          "name": "tokenId",
          "type": "uint256"
        }
      ],
      "name": "safeTransferFrom",
      "outputs": [],
      "stateMutability": "nonpayable",
      "type": "function"
    },
    {
      "inputs": [
        {
          "internalType": "address",
          "name": "from",
          "type": "address"
        },
        {
          "internalType": "address",
          "name": "to",
          "type": "address"
        },
        {
          "internalType": "uint256",
          "name": "tokenId",
          "type": "uint256"
        },
        {
          "internalType": "bytes",
          "name": "data",
          "type": "bytes"
        }
      ],
      "name": "safeTransferFrom",
      "outputs": [],
      "stateMutability": "nonpayable",
      "type": "function"
    },
    {
      "inputs": [
        {
          "internalType": "address",
          "name": "operator",
          "type": "address"
        },
        {
          "internalType": "bool",
          "name": "approved",
          "type": "bool"
        }
      ],
      "name": "setApprovalForAll",
      "outputs": [],
      "stateMutability": "nonpayable",
      "type": "function"
    },
    {
      "inputs": [
        {
          "internalType": "uint256",
          "name": "_newCost",
          "type": "uint256"
        }
      ],
      "name": "setCost",
      "outputs": [],
      "stateMutability": "nonpayable",
      "type": "function"
    },
    {
      "inputs": [
        {
          "internalType": "uint256",
          "name": "_newmaxMintAmount",
          "type": "uint256"
        }
      ],
      "name": "setMaxMintAmount",
      "outputs": [],
      "stateMutability": "nonpayable",
      "type": "function"
    },
    {
      "inputs": [
        {
          "internalType": "bytes4",
          "name": "interfaceId",
          "type": "bytes4"
        }
      ],
      "name": "supportsInterface",
      "outputs": [
        {
          "internalType": "bool",
          "name": "",
          "type": "bool"
        }
      ],
      "stateMutability": "view",
      "type": "function"
    },
    {
      "inputs": [],
      "name": "symbol",
      "outputs": [
        {
          "internalType": "string",
          "name": "",
          "type": "string"
        }
      ],
      "stateMutability": "view",
      "type": "function"
    },
    {
      "inputs": [
        {
          "internalType": "uint256",
          "name": "tokenId",
          "type": "uint256"
        }
      ],
      "name": "tokenURI",
      "outputs": [
        {
          "internalType": "string",
          "name": "",
          "type": "string"
        }
      ],
      "stateMutability": "view",
      "type": "function"
    },
    {
      "inputs": [],
      "name": "totalSupply",
      "outputs": [
        {
          "internalType": "uint256",
          "name": "",
          "type": "uint256"
        }
      ],
      "stateMutability": "view",
      "type": "function"
    },
    {
      "inputs": [
        {
          "internalType": "address",
          "name": "from",
          "type": "address"
        },
        {
          "internalType": "address",
          "name": "to",
          "type": "address"
        },
        {
          "internalType": "uint256",
          "name": "tokenId",
          "type": "uint256"
        }
      ],
      "name": "transferFrom",
      "outputs": [],
      "stateMutability": "nonpayable",
      "type": "function"
    },
    {
      "inputs": [
        {
          "internalType": "address",
          "name": "newOwner",
          "type": "address"
        }
      ],
      "name": "transferOwnership",
      "outputs": [],
      "stateMutability": "nonpayable",
      "type": "function"
    },
    {
      "inputs": [],
      "name": "unpause",
      "outputs": [],
      "stateMutability": "nonpayable",
      "type": "function"
    },
    {
      "inputs": [
        {
          "internalType": "uint256",
          "name": "_tokenId",
          "type": "uint256"
        },
        {
          "internalType": "string",
          "name": "_newTokenURI",
          "type": "string"
        }
      ],
      "name": "updateTokenURI",
      "outputs": [],
      "stateMutability": "nonpayable",
      "type": "function"
    },
    {
      "inputs": [],
      "name": "useMintRules",
      "outputs": [
        {
          "internalType": "bool",
          "name": "",
          "type": "bool"
        }
      ],
      "stateMutability": "view",
      "type": "function"
    },
    {
      "inputs": [],
      "name": "withdraw",
      "outputs": [],
      "stateMutability": "nonpayable",
      "type": "function"
    },
    {
      "inputs": [
        {
          "internalType": "string",
          "name": "_tokenURI",
          "type": "string"
        }
      ],
      "name": "mint",
      "outputs": [
        {
          "internalType": "uint256",
          "name": "",
          "type": "uint256"
        }
      ],
      "stateMutability": "payable",
      "type": "function"
    },
    {
      "inputs": [
        {
          "components": [
            {
              "internalType": "bytes",
              "name": "signature",
              "type": "bytes"
            },
            {
              "internalType": "uint256",
              "name": "locationRuleId",
              "type": "uint256"
            },
            {
              "internalType": "uint256",
              "name": "timestamp",
              "type": "uint256"
            },
            {
              "internalType": "address",
              "name": "receiver",
              "type": "address"
            },
            {
              "internalType": "string",
              "name": "tokenURI",
              "type": "string"
            }
          ],
          "internalType": "struct MentaportMint.MintRequest",
          "name": "_mintRequest",
          "type": "tuple"
        }
      ],
      "name": "mintLocation",
      "outputs": [
        {
          "internalType": "uint256",
          "name": "",
          "type": "uint256"
        }
      ],
      "stateMutability": "payable",
      "type": "function"
    },
    {
      "inputs": [
        {
          "internalType": "string",
          "name": "_tokenURI",
          "type": "string"
        },
        {
          "internalType": "address",
          "name": "_receiver",
          "type": "address"
        }
      ],
      "name": "mintForAddress",
      "outputs": [],
      "stateMutability": "nonpayable",
      "type": "function"
    },
    {
      "inputs": [
        {
          "internalType": "bool",
          "name": "_state",
          "type": "bool"
        }
      ],
      "name": "useUseMintRules",
      "outputs": [],
      "stateMutability": "nonpayable",
      "type": "function"
    }
  ],
  "bytecode": "0x60a060405266038d7ea4c68000600a556003600b55600c805460ff19169055600f80546001600160a81b03191674163f3475d1c4f194bd381b230a543daa8d3f7c0d011790553480156200005257600080fd5b5060405162003d6a38038062003d6a8339810160408190526200007591620005c7565b8585856000868686600f60019054906101000a90046001600160a01b031687878160009081620000a6919062000700565b506001620000b5828262000700565b50620000c791506000905033620002d6565b620000f160008051602062003cea83398151915260008051602062003cca833981519152620002e6565b6200011b60008051602062003d2a83398151915260008051602062003cca833981519152620002e6565b6200014560008051602062003d4a83398151915260008051602062003caa833981519152620002e6565b6200016f60008051602062003d0a83398151915260008051602062003caa833981519152620002e6565b6200017a3362000331565b6008805460ff60a01b191690556001600955620001a760008051602062003caa83398151915285620002d6565b620001c260008051602062003d4a83398151915285620002d6565b620001dd60008051602062003d4a83398151915233620002d6565b620001f860008051602062003d2a83398151915284620002d6565b6200021360008051602062003d0a83398151915233620002d6565b6200022e60008051602062003d0a83398151915283620002d6565b600c8054610100600160a81b0319166101006001600160a01b0384811682029290921792839055620002759260008051602062003cea8339815191529291900416620002d6565b600c54620002a29060008051602062003cca8339815191529061010090046001600160a01b0316620002d6565b620002ac62000383565b505050608092909252600c805460ff191691151591909117905550620007cc975050505050505050565b620002e28282620003e6565b5050565b600082815260076020526040808220600101805490849055905190918391839186917fbd79b86ffe0ab8e8776151514217cd7cacd52c909f66475c3af44e129f0b00ff9190a4505050565b600880546001600160a01b038381166001600160a01b0319831681179093556040519116919082907f8be0079c531659141344cd1fd0a4f28419497f9722a3daafe3b4186f6b6457e090600090a35050565b6200038d6200048a565b6008805460ff60a01b1916600160a01b1790557f62e78cea01bee320cd4e420270b5ea74000d11b0c9f74754ebdbfc544b05a258620003c93390565b6040516001600160a01b03909116815260200160405180910390a1565b60008281526007602090815260408083206001600160a01b038516845290915290205460ff16620002e25760008281526007602090815260408083206001600160a01b03851684529091529020805460ff19166001179055620004463390565b6001600160a01b0316816001600160a01b0316837f2f8788117e7eff1d82e926ec794901d17c78024a50270940304540a733656f0d60405160405180910390a45050565b6200049e600854600160a01b900460ff1690565b15620004e35760405162461bcd60e51b815260206004820152601060248201526f14185d5cd8589b194e881c185d5cd95960821b604482015260640160405180910390fd5b565b634e487b7160e01b600052604160045260246000fd5b600082601f8301126200050d57600080fd5b81516001600160401b03808211156200052a576200052a620004e5565b604051601f8301601f19908116603f01168101908282118183101715620005555762000555620004e5565b816040528381526020925086838588010111156200057257600080fd5b600091505b8382101562000596578582018301518183018401529082019062000577565b600093810190920192909252949350505050565b80516001600160a01b0381168114620005c257600080fd5b919050565b60008060008060008060c08789031215620005e157600080fd5b86516001600160401b0380821115620005f957600080fd5b620006078a838b01620004fb565b975060208901519150808211156200061e57600080fd5b506200062d89828a01620004fb565b955050604087015193506200064560608801620005aa565b92506200065560808801620005aa565b91506200066560a08801620005aa565b90509295509295509295565b600181811c908216806200068657607f821691505b602082108103620006a757634e487b7160e01b600052602260045260246000fd5b50919050565b601f821115620006fb57600081815260208120601f850160051c81016020861015620006d65750805b601f850160051c820191505b81811015620006f757828155600101620006e2565b5050505b505050565b81516001600160401b038111156200071c576200071c620004e5565b62000734816200072d845462000671565b84620006ad565b602080601f8311600181146200076c5760008415620007535750858301515b600019600386901b1c1916600185901b178555620006f7565b600085815260208120601f198616915b828110156200079d578886015182559484019460019091019084016200077c565b5085821015620007bc5787850151600019600388901b60f8161c191681555b5050505050600190811b01905550565b6080516134ad620007fd600039600081816107c201528181610fa601528181611294015261167201526134ad6000f3fe6080604052600436106102885760003560e01c80638456cb591161015a578063c87b56dd116100c1578063df6de9af1161007a578063df6de9af146107f7578063e985e9c514610817578063eda2954714610860578063ee45d54c14610880578063f2fde38b146108b4578063f4ebc814146108d457600080fd5b8063c87b56dd1461071c578063d0f0d2ac1461073c578063d53913931461075c578063d547741f14610790578063d5abeb01146107b0578063d85d3d27146107e457600080fd5b8063a1ebf35d11610113578063a1ebf35d1461063f578063a217fddf14610673578063a22cb46514610688578063b88d4fde146106a8578063bd5a0fb3146106c8578063c37e154e146106fc57600080fd5b80638456cb59146105895780638da5cb5b1461059e5780638fc59014146105bc57806391d14854146105f0578063921c1b6c1461061057806395d89b411461062a57600080fd5b8063248a9ca3116101fe57806342842e0e116101b757806342842e0e146104d557806344a0d68a146104f55780635c975abb146105155780636352211e1461053457806370a0823114610554578063715018a61461057457600080fd5b8063248a9ca3146104215780632f2ff15d1461045157806335a702441461047157806336568abe1461048b5780633ccfd60b146104ab5780633f4ba83a146104c057600080fd5b8063095ea7b311610250578063095ea7b31461038057806313faede6146103a057806318160ddd146103b657806318e97fd1146103cb578063239c70ae146103eb57806323b872dd1461040157600080fd5b806301ffc9a71461028d57806303fe46ab146102c257806306fdde0314610304578063081812fc14610326578063088a4ed01461035e575b600080fd5b34801561029957600080fd5b506102ad6102a8366004612b01565b6108e7565b60405190151581526020015b60405180910390f35b3480156102ce57600080fd5b506102f67f364d3d7565c7a8300c96fd53e065d19b65848d7b23b3191adcd55621c744223c81565b6040519081526020016102b9565b34801561031057600080fd5b506103196108f8565b6040516102b99190612b6e565b34801561033257600080fd5b50610346610341366004612b81565b61098a565b6040516001600160a01b0390911681526020016102b9565b34801561036a57600080fd5b5061037e610379366004612b81565b6109b1565b005b34801561038c57600080fd5b5061037e61039b366004612bb1565b6109f5565b3480156103ac57600080fd5b506102f6600a5481565b3480156103c257600080fd5b506102f6610b0f565b3480156103d757600080fd5b5061037e6103e6366004612c7e565b610b1f565b3480156103f757600080fd5b506102f6600b5481565b34801561040d57600080fd5b5061037e61041c366004612cc5565b610b96565b34801561042d57600080fd5b506102f661043c366004612b81565b60009081526007602052604090206001015490565b34801561045d57600080fd5b5061037e61046c366004612d01565b610bc7565b34801561047d57600080fd5b50600c546102ad9060ff1681565b34801561049757600080fd5b5061037e6104a6366004612d01565b610bec565b3480156104b757600080fd5b5061037e610c66565b3480156104cc57600080fd5b5061037e610d99565b3480156104e157600080fd5b5061037e6104f0366004612cc5565b610db1565b34801561050157600080fd5b5061037e610510366004612b81565b610dcc565b34801561052157600080fd5b50600854600160a01b900460ff166102ad565b34801561054057600080fd5b5061034661054f366004612b81565b610e09565b34801561056057600080fd5b506102f661056f366004612d2d565b610e69565b34801561058057600080fd5b5061037e610eef565b34801561059557600080fd5b5061037e610f01565b3480156105aa57600080fd5b506008546001600160a01b0316610346565b3480156105c857600080fd5b506102f67fcc3e15b6937a2f69a6f5452031b5fbab5ab7de91ec2efae0db33241e870e612181565b3480156105fc57600080fd5b506102ad61060b366004612d01565b610f19565b34801561061c57600080fd5b50600f546102ad9060ff1681565b34801561063657600080fd5b50610319610f44565b34801561064b57600080fd5b506102f67fe2f4eaae4a9751e85a3e4a7b9587827a877f29914755229b07a7b2da98285f7081565b34801561067f57600080fd5b506102f6600081565b34801561069457600080fd5b5061037e6106a3366004612d58565b610f53565b3480156106b457600080fd5b5061037e6106c3366004612d82565b610f5e565b3480156106d457600080fd5b506102f67f5538e4c5806ce938f87fd272043dbbcb81b8b6caf170ecffd7288c9f727d0d4181565b34801561070857600080fd5b5061037e610717366004612dea565b610f96565b34801561072857600080fd5b50610319610737366004612b81565b6110b7565b34801561074857600080fd5b5061037e610757366004612e2f565b6111c7565b34801561076857600080fd5b506102f67f9f2df0fed2c77648de5860a4cc508cd0818c85b8b8a1ab4ceeef8d981c8956a681565b34801561079c57600080fd5b5061037e6107ab366004612d01565b611257565b3480156107bc57600080fd5b506102f67f000000000000000000000000000000000000000000000000000000000000000081565b6102f66107f2366004612e4a565b61127c565b34801561080357600080fd5b5061037e610812366004612d2d565b6113c8565b34801561082357600080fd5b506102ad610832366004612e7f565b6001600160a01b03918216600090815260056020908152604080832093909416825291909152205460ff1690565b34801561086c57600080fd5b506102ad61087b366004612ea9565b6114a9565b34801561088c57600080fd5b506102f67fe16cdf405a9390b25e5964a43245ffffde1ef74ecabd83bd10b9e291def5775081565b3480156108c057600080fd5b5061037e6108cf366004612d2d565b6115d5565b6102f66108e2366004612ef2565b61164b565b60006108f282611907565b92915050565b60606000805461090790612f2d565b80601f016020809104026020016040519081016040528092919081815260200182805461093390612f2d565b80156109805780601f1061095557610100808354040283529160200191610980565b820191906000526020600020905b81548152906001019060200180831161096357829003601f168201915b5050505050905090565b60006109958261192c565b506000908152600460205260409020546001600160a01b031690565b6109b961198b565b600b8190556040518181527f7d36f765ce8a3e4d58208021c6c9fb6e3b3ea8875032647e7119e26e2d3e0249906020015b60405180910390a150565b6000610a0082610e09565b9050806001600160a01b0316836001600160a01b031603610a725760405162461bcd60e51b815260206004820152602160248201527f4552433732313a20617070726f76616c20746f2063757272656e74206f776e656044820152603960f91b60648201526084015b60405180910390fd5b336001600160a01b0382161480610a8e5750610a8e8133610832565b610b005760405162461bcd60e51b815260206004820152603d60248201527f4552433732313a20617070726f76652063616c6c6572206973206e6f7420746f60448201527f6b656e206f776e6572206f7220617070726f76656420666f7220616c6c0000006064820152608401610a69565b610b0a83836119e5565b505050565b6000610b1a600d5490565b905090565b610b27611a53565b600c5460ff1615610b885760405162461bcd60e51b815260206004820152602560248201527f4e6f7420616c6c6f77656420696e2073746174696320617373657420636f6e74604482015264726163747360d81b6064820152608401610a69565b610b928282611ac9565b5050565b610ba03382611b94565b610bbc5760405162461bcd60e51b8152600401610a6990612f67565b610b0a838383611c12565b600082815260076020526040902060010154610be281611d76565b610b0a8383611d80565b6001600160a01b0381163314610c5c5760405162461bcd60e51b815260206004820152602f60248201527f416363657373436f6e74726f6c3a2063616e206f6e6c792072656e6f756e636560448201526e103937b632b9903337b91039b2b63360891b6064820152608401610a69565b610b928282611e06565b610c6e611e6d565b610c7661198b565b600c5460009061010090046001600160a01b03166103e8610c98476019612fca565b610ca29190612fe1565b604051600081818185875af1925050503d8060008114610cde576040519150601f19603f3d011682016040523d82523d6000602084013e610ce3565b606091505b5050905080610cf157600080fd5b6000610d056008546001600160a01b031690565b6001600160a01b03164760405160006040518083038185875af1925050503d8060008114610d4f576040519150601f19603f3d011682016040523d82523d6000602084013e610d54565b606091505b5050905080610d6257600080fd5b6040517f57ea89b6814fccbbe8728fa89cc8e6b5477e559b2a34e946e105b11112e94b5890600090a15050610d976001600955565b565b610da1611ec6565b610da9611a53565b610d97611f16565b610b0a83838360405180602001604052806000815250610f5e565b610dd461198b565b600a8190556040518181527fd85f0a05440e3f289cb8a2e632d649b6877dfb96400c33ab6f58880b8c6ca5ae906020016109ea565b6000818152600260205260408120546001600160a01b0316806108f25760405162461bcd60e51b8152602060048201526018602482015277115490cdcc8c4e881a5b9d985b1a59081d1bdad95b88125160421b6044820152606401610a69565b60006001600160a01b038216610ed35760405162461bcd60e51b815260206004820152602960248201527f4552433732313a2061646472657373207a65726f206973206e6f7420612076616044820152683634b21037bbb732b960b91b6064820152608401610a69565b506001600160a01b031660009081526003602052604090205490565b610ef761198b565b610d976000611f6b565b610f09611fbd565b610f11611a53565b610d9761200a565b60009182526007602090815260408084206001600160a01b0393909316845291905290205460ff1690565b60606001805461090790612f2d565b610b9233838361204d565b610f683383611b94565b610f845760405162461bcd60e51b8152600401610a6990612f67565b610f908484848461211b565b50505050565b610f9e611e6d565b80600a5460017f0000000000000000000000000000000000000000000000000000000000000000610fce600d5490565b610fd9906001613003565b1115610ff75760405162461bcd60e51b8152600401610a6990613016565b600b5461100384610e69565b61100e906001613003565b111561102c5760405162461bcd60e51b8152600401610a6990613044565b600a546110398284612fca565b146110565760405162461bcd60e51b8152600401610a699061307b565b61105e61214e565b61106884866121bb565b50604051600181526001600160a01b0385169033907f09170f0c5b589223f24f6b70e47a2405d7cb35b22cb8bc9bbdef99b50ffb62669060200160405180910390a3505050610b926001600955565b60606110c28261192c565b600082815260066020526040812080546110db90612f2d565b80601f016020809104026020016040519081016040528092919081815260200182805461110790612f2d565b80156111545780601f1061112957610100808354040283529160200191611154565b820191906000526020600020905b81548152906001019060200180831161113757829003601f168201915b50505050509050600061117260408051602081019091526000815290565b90508051600003611184575092915050565b8151156111b657808260405160200161119e9291906130a8565b60405160208183030381529060405292505050919050565b6111bf84612235565b949350505050565b6111cf61198b565b600f805460ff191682151590811790915560009060ff166111f15760006111f4565b60015b9050337f9fa8ded344ebde1e27cd6d9f59d3cc6a23ee67cda9b166f08120a62cce83fdd8611221836122a9565b60405160200161123191906130d7565b60408051601f198184030181529082905261124b91612b6e565b60405180910390a25050565b60008281526007602052604090206001015461127281611d76565b610b0a8383611e06565b6000611286611e6d565b61128e611fbd565b333460017f00000000000000000000000000000000000000000000000000000000000000006112bc600d5490565b6112c7906001613003565b11156112e55760405162461bcd60e51b8152600401610a6990613016565b600b546112f184610e69565b6112fc906001613003565b111561131a5760405162461bcd60e51b8152600401610a6990613044565b600a546113278284612fca565b146113445760405162461bcd60e51b8152600401610a699061307b565b600f5460ff16156113aa5760405162461bcd60e51b815260206004820152602a60248201527f4661696c6564207573696e67206d696e742072756c65732c20757365206d696e6044820152693a2637b1b0ba34b7b71760b11b6064820152608401610a69565b6113b433866121bb565b93505050506113c36001600955565b919050565b6113d0611e6d565b6113fa7f5538e4c5806ce938f87fd272043dbbcb81b8b6caf170ecffd7288c9f727d0d4133610f19565b6114465760405162461bcd60e51b815260206004820152601760248201527f43616c6c6572206973206e6f74206d656e7461706f72740000000000000000006044820152606401610a69565b600c8054610100600160a81b0319166101006001600160a01b03848116820292909217928390556040519204169033907f467bbd71479fc68674e8bb2aec7482fd21f37d1a311cff1b28a3254d6648a5ec90600090a36114a66001600955565b50565b6040516bffffffffffffffffffffffff1930606090811b8216602084015286901b166034820152604881018490526068810183905260009081906088016040516020818303038152906040528051906020012090506000611537827f19457468657265756d205369676e6564204d6573736167653a0a3332000000006000908152601c91909152603c902090565b9050600080611546838761233c565b9092509050600081600481111561155f5761155f613113565b1461159e5760405162461bcd60e51b815260206004820152600f60248201526e29b4b3b730ba3ab9329022b93937b960891b6044820152606401610a69565b6115c87fe2f4eaae4a9751e85a3e4a7b9587827a877f29914755229b07a7b2da98285f7083610f19565b9998505050505050505050565b6115dd61198b565b6001600160a01b0381166116425760405162461bcd60e51b815260206004820152602660248201527f4f776e61626c653a206e6577206f776e657220697320746865207a65726f206160448201526564647265737360d01b6064820152608401610a69565b6114a681611f6b565b6000611655611e6d565b61165d611fbd565b61166d6080830160608401612d2d565b3460017f000000000000000000000000000000000000000000000000000000000000000061169a600d5490565b6116a5906001613003565b11156116c35760405162461bcd60e51b8152600401610a6990613016565b600b546116cf84610e69565b6116da906001613003565b11156116f85760405162461bcd60e51b8152600401610a6990613044565b600a546117058284612fca565b146117225760405162461bcd60e51b8152600401610a699061307b565b6117326080860160608701612d2d565b604086013560208701356117468880613129565b8080601f016020809104026020016040519081016040528093929190818152602001838380828437600092019190915250611789925086915085905084846114a9565b6117c65760405162461bcd60e51b815260206004820152600e60248201526d24b73b30b634b21039b4b3b732b960911b6044820152606401610a69565b600f5460ff166118375760405162461bcd60e51b815260206004820152603660248201527f4661696c6564206e6f74207573696e67206d696e742072756c65732c20757365604482015275103737b936b0b61036b4b73a10333ab731ba34b7b71760511b6064820152608401610a69565b61187e6118448a80613129565b8080601f01602080910402602001604051908101604052809392919081815260200183838082843760009201919091525061238192505050565b61189a5760405162461bcd60e51b8152600401610a6990613170565b6118f46118ad60808b0160608c01612d2d565b6118ba60808c018c613129565b8080601f0160208091040260200160405190810160405280939291908181526020018383808284376000920191909152506121bb92505050565b9750505050505050506113c36001600955565b60006001600160e01b03198216637965db0b60e01b14806108f257506108f2826123fd565b6000818152600260205260409020546001600160a01b03166114a65760405162461bcd60e51b8152602060048201526018602482015277115490cdcc8c4e881a5b9d985b1a59081d1bdad95b88125160421b6044820152606401610a69565b6008546001600160a01b03163314610d975760405162461bcd60e51b815260206004820181905260248201527f4f776e61626c653a2063616c6c6572206973206e6f7420746865206f776e65726044820152606401610a69565b600081815260046020526040902080546001600160a01b0319166001600160a01b0384169081179091558190611a1a82610e09565b6001600160a01b03167f8c5be1e5ebec7d5bd14f71427d1e84f3dd0314c0f7b2291e5b200ac8c7c3b92560405160405180910390a45050565b611a7d7f364d3d7565c7a8300c96fd53e065d19b65848d7b23b3191adcd55621c744223c33610f19565b610d975760405162461bcd60e51b815260206004820152601c60248201527f43616c6c6572206973206e6f7420636f6e74726163742061646d696e000000006044820152606401610a69565b6000828152600260205260409020546001600160a01b0316611b445760405162461bcd60e51b815260206004820152602e60248201527f45524337323155524953746f726167653a2055524920736574206f66206e6f6e60448201526d32bc34b9ba32b73a103a37b5b2b760911b6064820152608401610a69565b6000828152600660205260409020611b5c8282613208565b506040518281527ff8e1a15aba9398e019f0b49df1a4fde98ee17ae345cb5f6b5e2c27f5033e8ce79060200160405180910390a15050565b600080611ba083610e09565b9050806001600160a01b0316846001600160a01b03161480611be757506001600160a01b0380821660009081526005602090815260408083209388168352929052205460ff165b806111bf5750836001600160a01b0316611c008461098a565b6001600160a01b031614949350505050565b826001600160a01b0316611c2582610e09565b6001600160a01b031614611c4b5760405162461bcd60e51b8152600401610a69906132c8565b6001600160a01b038216611cad5760405162461bcd60e51b8152602060048201526024808201527f4552433732313a207472616e7366657220746f20746865207a65726f206164646044820152637265737360e01b6064820152608401610a69565b826001600160a01b0316611cc082610e09565b6001600160a01b031614611ce65760405162461bcd60e51b8152600401610a69906132c8565b600081815260046020908152604080832080546001600160a01b03199081169091556001600160a01b0387811680865260038552838620805460001901905590871680865283862080546001019055868652600290945282852080549092168417909155905184937fddf252ad1be2c89b69c2b068fc378daa952ba7f163c4a11628f55a4df523b3ef91a4505050565b6114a68133612422565b611d8a8282610f19565b610b925760008281526007602090815260408083206001600160a01b03851684529091529020805460ff19166001179055611dc23390565b6001600160a01b0316816001600160a01b0316837f2f8788117e7eff1d82e926ec794901d17c78024a50270940304540a733656f0d60405160405180910390a45050565b611e108282610f19565b15610b925760008281526007602090815260408083206001600160a01b0385168085529252808320805460ff1916905551339285917ff6391f5c32d9c69d2a47ea670b442974b53935d1edc7fd64eb21e047a839171b9190a45050565b600260095403611ebf5760405162461bcd60e51b815260206004820152601f60248201527f5265656e7472616e637947756172643a207265656e7472616e742063616c6c006044820152606401610a69565b6002600955565b600854600160a01b900460ff16610d975760405162461bcd60e51b815260206004820152601460248201527314185d5cd8589b194e881b9bdd081c185d5cd95960621b6044820152606401610a69565b611f1e611ec6565b6008805460ff60a01b191690557f5db9ee0a495bf2e6ff9c91a7834c1ba4fdd244a5e8aa4e537bd38aeae4b073aa335b6040516001600160a01b03909116815260200160405180910390a1565b600880546001600160a01b038381166001600160a01b0319831681179093556040519116919082907f8be0079c531659141344cd1fd0a4f28419497f9722a3daafe3b4186f6b6457e090600090a35050565b600854600160a01b900460ff1615610d975760405162461bcd60e51b815260206004820152601060248201526f14185d5cd8589b194e881c185d5cd95960821b6044820152606401610a69565b612012611fbd565b6008805460ff60a01b1916600160a01b1790557f62e78cea01bee320cd4e420270b5ea74000d11b0c9f74754ebdbfc544b05a258611f4e3390565b816001600160a01b0316836001600160a01b0316036120ae5760405162461bcd60e51b815260206004820152601960248201527f4552433732313a20617070726f766520746f2063616c6c6572000000000000006044820152606401610a69565b6001600160a01b03838116600081815260056020908152604080832094871680845294825291829020805460ff191686151590811790915591519182527f17307eab39ab6107e8899845ad3d59bd9653f200f220920489ca2b5937696c31910160405180910390a3505050565b612126848484611c12565b6121328484848461247b565b610f905760405162461bcd60e51b8152600401610a699061330d565b6121787f9f2df0fed2c77648de5860a4cc508cd0818c85b8b8a1ab4ceeef8d981c8956a633610f19565b610d975760405162461bcd60e51b815260206004820152601460248201527321b0b63632b91034b9903737ba1036b4b73a32b960611b6044820152606401610a69565b60006121cb600d80546001019055565b60006121d6600d5490565b90506121e28482612579565b6121ec8184611ac9565b604080516001600160a01b0386168152602081018390527f69e9171703d3d23bfd0df0cef4799a4cd94856fbe917b5d38542ffcee2e592e4910160405180910390a19392505050565b60606122408261192c565b600061225760408051602081019091526000815290565b9050600081511161227757604051806020016040528060008152506122a2565b80612281846122a9565b6040516020016122929291906130a8565b6040516020818303038152906040525b9392505050565b606060006122b683612593565b600101905060008167ffffffffffffffff8111156122d6576122d6612bdb565b6040519080825280601f01601f191660200182016040528015612300576020820181803683370190505b5090508181016020015b600019016f181899199a1a9b1b9c1cb0b131b232b360811b600a86061a8153600a850494508461230a57509392505050565b60008082516041036123725760208301516040840151606085015160001a6123668782858561266b565b9450945050505061237a565b506000905060025b9250929050565b6000600e82604051612393919061335f565b9081526040519081900360200190205460ff16156123c35760405162461bcd60e51b8152600401610a6990613170565b6001600e836040516123d5919061335f565b908152604051908190036020019020805491151560ff19909216919091179055506001919050565b60006001600160e01b03198216632483248360e11b14806108f257506108f28261272f565b61242c8282610f19565b610b92576124398161277f565b612444836020612791565b60405160200161245592919061337b565b60408051601f198184030181529082905262461bcd60e51b8252610a6991600401612b6e565b60006001600160a01b0384163b1561257157604051630a85bd0160e11b81526001600160a01b0385169063150b7a02906124bf9033908990889088906004016133f0565b6020604051808303816000875af19250505080156124fa575060408051601f3d908101601f191682019092526124f79181019061342d565b60015b612557573d808015612528576040519150601f19603f3d011682016040523d82523d6000602084013e61252d565b606091505b50805160000361254f5760405162461bcd60e51b8152600401610a699061330d565b805181602001fd5b6001600160e01b031916630a85bd0160e11b1490506111bf565b5060016111bf565b610b9282826040518060200160405280600081525061292d565b60008072184f03e93ff9f4daa797ed6e38ed64bf6a1f0160401b83106125d25772184f03e93ff9f4daa797ed6e38ed64bf6a1f0160401b830492506040015b6d04ee2d6d415b85acef810000000083106125fe576d04ee2d6d415b85acef8100000000830492506020015b662386f26fc10000831061261c57662386f26fc10000830492506010015b6305f5e1008310612634576305f5e100830492506008015b612710831061264857612710830492506004015b6064831061265a576064830492506002015b600a83106108f25760010192915050565b6000807f7fffffffffffffffffffffffffffffff5d576e7357a4501ddfe92f46681b20a08311156126a25750600090506003612726565b6040805160008082526020820180845289905260ff881692820192909252606081018690526080810185905260019060a0016020604051602081039080840390855afa1580156126f6573d6000803e3d6000fd5b5050604051601f1901519150506001600160a01b03811661271f57600060019250925050612726565b9150600090505b94509492505050565b60006001600160e01b031982166380ac58cd60e01b148061276057506001600160e01b03198216635b5e139f60e01b145b806108f257506301ffc9a760e01b6001600160e01b03198316146108f2565b60606108f26001600160a01b03831660145b606060006127a0836002612fca565b6127ab906002613003565b67ffffffffffffffff8111156127c3576127c3612bdb565b6040519080825280601f01601f1916602001820160405280156127ed576020820181803683370190505b509050600360fc1b816000815181106128085761280861344a565b60200101906001600160f81b031916908160001a905350600f60fb1b816001815181106128375761283761344a565b60200101906001600160f81b031916908160001a905350600061285b846002612fca565b612866906001613003565b90505b60018111156128de576f181899199a1a9b1b9c1cb0b131b232b360811b85600f166010811061289a5761289a61344a565b1a60f81b8282815181106128b0576128b061344a565b60200101906001600160f81b031916908160001a90535060049490941c936128d781613460565b9050612869565b5083156122a25760405162461bcd60e51b815260206004820181905260248201527f537472696e67733a20686578206c656e67746820696e73756666696369656e746044820152606401610a69565b6129378383612960565b612944600084848461247b565b610b0a5760405162461bcd60e51b8152600401610a699061330d565b6001600160a01b0382166129b65760405162461bcd60e51b815260206004820181905260248201527f4552433732313a206d696e7420746f20746865207a65726f20616464726573736044820152606401610a69565b6000818152600260205260409020546001600160a01b031615612a1b5760405162461bcd60e51b815260206004820152601c60248201527f4552433732313a20746f6b656e20616c7265616479206d696e746564000000006044820152606401610a69565b6000818152600260205260409020546001600160a01b031615612a805760405162461bcd60e51b815260206004820152601c60248201527f4552433732313a20746f6b656e20616c7265616479206d696e746564000000006044820152606401610a69565b6001600160a01b038216600081815260036020908152604080832080546001019055848352600290915280822080546001600160a01b0319168417905551839291907fddf252ad1be2c89b69c2b068fc378daa952ba7f163c4a11628f55a4df523b3ef908290a45050565b6001600160e01b0319811681146114a657600080fd5b600060208284031215612b1357600080fd5b81356122a281612aeb565b60005b83811015612b39578181015183820152602001612b21565b50506000910152565b60008151808452612b5a816020860160208601612b1e565b601f01601f19169290920160200192915050565b6020815260006122a26020830184612b42565b600060208284031215612b9357600080fd5b5035919050565b80356001600160a01b03811681146113c357600080fd5b60008060408385031215612bc457600080fd5b612bcd83612b9a565b946020939093013593505050565b634e487b7160e01b600052604160045260246000fd5b600082601f830112612c0257600080fd5b813567ffffffffffffffff80821115612c1d57612c1d612bdb565b604051601f8301601f19908116603f01168101908282118183101715612c4557612c45612bdb565b81604052838152866020858801011115612c5e57600080fd5b836020870160208301376000602085830101528094505050505092915050565b60008060408385031215612c9157600080fd5b82359150602083013567ffffffffffffffff811115612caf57600080fd5b612cbb85828601612bf1565b9150509250929050565b600080600060608486031215612cda57600080fd5b612ce384612b9a565b9250612cf160208501612b9a565b9150604084013590509250925092565b60008060408385031215612d1457600080fd5b82359150612d2460208401612b9a565b90509250929050565b600060208284031215612d3f57600080fd5b6122a282612b9a565b803580151581146113c357600080fd5b60008060408385031215612d6b57600080fd5b612d7483612b9a565b9150612d2460208401612d48565b60008060008060808587031215612d9857600080fd5b612da185612b9a565b9350612daf60208601612b9a565b925060408501359150606085013567ffffffffffffffff811115612dd257600080fd5b612dde87828801612bf1565b91505092959194509250565b60008060408385031215612dfd57600080fd5b823567ffffffffffffffff811115612e1457600080fd5b612e2085828601612bf1565b925050612d2460208401612b9a565b600060208284031215612e4157600080fd5b6122a282612d48565b600060208284031215612e5c57600080fd5b813567ffffffffffffffff811115612e7357600080fd5b6111bf84828501612bf1565b60008060408385031215612e9257600080fd5b612e9b83612b9a565b9150612d2460208401612b9a565b60008060008060808587031215612ebf57600080fd5b612ec885612b9a565b93506020850135925060408501359150606085013567ffffffffffffffff811115612dd257600080fd5b600060208284031215612f0457600080fd5b813567ffffffffffffffff811115612f1b57600080fd5b820160a081850312156122a257600080fd5b600181811c90821680612f4157607f821691505b602082108103612f6157634e487b7160e01b600052602260045260246000fd5b50919050565b6020808252602d908201527f4552433732313a2063616c6c6572206973206e6f7420746f6b656e206f776e6560408201526c1c881bdc88185c1c1c9bdd9959609a1b606082015260800190565b634e487b7160e01b600052601160045260246000fd5b80820281158282048414176108f2576108f2612fb4565b600082612ffe57634e487b7160e01b600052601260045260246000fd5b500490565b808201808211156108f2576108f2612fb4565b6020808252601490820152734d617820737570706c792065786365656465642160601b604082015260600190565b60208082526018908201527f4d6178206d696e7420616d6f756e742065786365656465640000000000000000604082015260600190565b602080825260139082015272496e73756666696369656e742066756e64732160681b604082015260600190565b600083516130ba818460208801612b1e565b8351908301906130ce818360208801612b1e565b01949350505050565b73029b2ba3a34b7339036b4b73a10393ab632b99d160651b815260008251613106816014850160208701612b1e565b9190910160140192915050565b634e487b7160e01b600052602160045260246000fd5b6000808335601e1984360301811261314057600080fd5b83018035915067ffffffffffffffff82111561315b57600080fd5b60200191503681900382131561237a57600080fd5b6020808252602a908201527f5369676e617475726520616c726561647920757365642c206e6f742076616c69604082015269321030b73cb6b7b9329760b11b606082015260800190565b601f821115610b0a57600081815260208120601f850160051c810160208610156131e15750805b601f850160051c820191505b81811015613200578281556001016131ed565b505050505050565b815167ffffffffffffffff81111561322257613222612bdb565b613236816132308454612f2d565b846131ba565b602080601f83116001811461326b57600084156132535750858301515b600019600386901b1c1916600185901b178555613200565b600085815260208120601f198616915b8281101561329a5788860151825594840194600190910190840161327b565b50858210156132b85787850151600019600388901b60f8161c191681555b5050505050600190811b01905550565b60208082526025908201527f4552433732313a207472616e736665722066726f6d20696e636f72726563742060408201526437bbb732b960d91b606082015260800190565b60208082526032908201527f4552433732313a207472616e7366657220746f206e6f6e20455243373231526560408201527131b2b4bb32b91034b6b83632b6b2b73a32b960711b606082015260800190565b60008251613371818460208701612b1e565b9190910192915050565b7f416363657373436f6e74726f6c3a206163636f756e74200000000000000000008152600083516133b3816017850160208801612b1e565b7001034b99036b4b9b9b4b733903937b6329607d1b60179184019182015283516133e4816028840160208801612b1e565b01602801949350505050565b6001600160a01b038581168252841660208201526040810183905260806060820181905260009061342390830184612b42565b9695505050505050565b60006020828403121561343f57600080fd5b81516122a281612aeb565b634e487b7160e01b600052603260045260246000fd5b60008161346f5761346f612fb4565b50600019019056fea26469706673582212206dac66aa3099efa6bb52ce678e03106472a6fce738072c86dc2c9b1702f36dff64736f6c63430008110033cc3e15b6937a2f69a6f5452031b5fbab5ab7de91ec2efae0db33241e870e6121e16cdf405a9390b25e5964a43245ffffde1ef74ecabd83bd10b9e291def577505538e4c5806ce938f87fd272043dbbcb81b8b6caf170ecffd7288c9f727d0d41e2f4eaae4a9751e85a3e4a7b9587827a877f29914755229b07a7b2da98285f709f2df0fed2c77648de5860a4cc508cd0818c85b8b8a1ab4ceeef8d981c8956a6364d3d7565c7a8300c96fd53e065d19b65848d7b23b3191adcd55621c744223c",
  "immutableReferences": {
    "4066": [
      {
        "length": 32,
        "start": 1986
      },
      {
        "length": 32,
        "start": 4006
      },
      {
        "length": 32,
        "start": 4756
      },
      {
        "length": 32,
        "start": 5746
      }
    ]
  },
  "source": "//SPDX-License-Identifier: MIT\npragma solidity 0.8.17;\nimport \"./MentaportERC721.sol\";\n/**                                            \n       \n      ___           ___           ___                         ___           ___         ___           ___                   \n     /\\  \\         /\\__\\         /\\  \\                       /\\  \\         /\\  \\       /\\  \\         /\\  \\                  \n    |::\\  \\       /:/ _/_        \\:\\  \\         ___         /::\\  \\       /::\\  \\     /::\\  \\       /::\\  \\         ___     \n    |:|:\\  \\     /:/ /\\__\\        \\:\\  \\       /\\__\\       /:/\\:\\  \\     /:/\\:\\__\\   /:/\\:\\  \\     /:/\\:\\__\\       /\\__\\    \n  __|:|\\:\\  \\   /:/ /:/ _/_   _____\\:\\  \\     /:/  /      /:/ /::\\  \\   /:/ /:/  /  /:/  \\:\\  \\   /:/ /:/  /      /:/  /    \n /::::|_\\:\\__\\ /:/_/:/ /\\__\\ /::::::::\\__\\   /:/__/      /:/_/:/\\:\\__\\ /:/_/:/  /  /:/__/ \\:\\__\\ /:/_/:/__/___   /:/__/     \n \\:\\~~\\  \\/__/ \\:\\/:/ /:/  / \\:\\~~\\~~\\/__/  /::\\  \\      \\:\\/:/  \\/__/ \\:\\/:/  /   \\:\\  \\ /:/  / \\:\\/:::::/  /  /::\\  \\     \n  \\:\\  \\        \\::/_/:/  /   \\:\\  \\       /:/\\:\\  \\      \\::/__/       \\::/__/     \\:\\  /:/  /   \\::/~~/~~~~  /:/\\:\\  \\    \n   \\:\\  \\        \\:\\/:/  /     \\:\\  \\      \\/__\\:\\  \\      \\:\\  \\        \\:\\  \\      \\:\\/:/  /     \\:\\~~\\      \\/__\\:\\  \\   \n    \\:\\__\\        \\::/  /       \\:\\__\\          \\:\\__\\      \\:\\__\\        \\:\\__\\      \\::/  /       \\:\\__\\          \\:\\__\\  \n     \\/__/         \\/__/         \\/__/           \\/__/       \\/__/         \\/__/       \\/__/         \\/__/           \\/__/  \n       \n       \n                                                          \n**/\n\n/**\n * @title MentaportMint\n * @dev Extending MentaportERC721\n   Adds functionality to check rules of who, when and where user can mint NFT\n**/\n\ncontract MentaportMint is MentaportERC721 {\n    using Strings for uint256;\n\n    struct MintRequest {\n        bytes signature;\n        uint256 locationRuleId;\n        uint256 timestamp;\n        address receiver;\n        string tokenURI;\n    }\n\n    mapping(bytes => bool) internal _usedMintSignatures;\n    bool public useMintRules = true;\n    address internal initMentaportAccount =\n        0x163f3475D1C4F194BD381B230a543DAA8D3f7c0d;\n\n    constructor(\n        string memory _name,\n        string memory _symbol,\n        uint256 _maxSupply,\n        address _admin,\n        address _minter,\n        address _signer\n    )\n        MentaportERC721(\n            _name,\n            _symbol,\n            _maxSupply,\n            false,\n            _admin,\n            _minter,\n            _signer,\n            initMentaportAccount\n        )\n    {}\n\n    //----------------------------------------------------------------------------\n    // External functions\n    /**\n     * @dev Mint function as in {ERC721}\n     *\n     *   - Follows `mintCompliance` from {MentaportERC721}\n     *   - Checks if the contact is using mint rules, if it is it will fail and\n     *       let caller know to use `MintMenta` instead.\n     *\n     */\n    function mint(\n        string memory _tokenURI\n    )\n        external\n        payable\n        virtual\n        nonReentrant\n        whenNotPaused\n        mintCompliance(msg.sender, msg.value, 1)\n        returns (uint256)\n    {\n        require(!useMintRules, \"Failed using mint rules, use mintLocation.\");\n\n        return _mintNFT(msg.sender, _tokenURI);\n    }\n\n    /**\n     * @dev mintLocation function controls signature of rules being passed\n     *\n     *   - Follows `mintCompliance` from {MentaportERC721}\n     *   - Checks `onlyValidMessage`\n     *       - signature approves time / location rule passed\n     *   - Checks that the signature ahsnt been used before\n     */\n    function mintLocation(\n        MintRequest calldata _mintRequest\n    )\n        external\n        payable\n        virtual\n        nonReentrant\n        whenNotPaused\n        mintCompliance(_mintRequest.receiver, msg.value, 1)\n        onlyValidSigner(\n            _mintRequest.receiver,\n            _mintRequest.timestamp,\n            _mintRequest.locationRuleId,\n            _mintRequest.signature\n        )\n        returns (uint256)\n    {\n        require(\n            useMintRules,\n            \"Failed not using mint rules, use normal mint function.\"\n        );\n        require(\n            _checkMintSignature(_mintRequest.signature),\n            \"Signature already used, not valid anymore.\"\n        );\n\n        return _mintNFT(_mintRequest.receiver, _mintRequest.tokenURI);\n    }\n\n    /**\n     * @dev MINTER_ROLE of contract mints 1 token for address `_receiver`, with `_tokenURI`\n     *\n     *  - Emits a {MintForAddress} event.\n     */\n    function mintForAddress(\n        string memory _tokenURI,\n        address _receiver\n    )\n        external\n        virtual\n        nonReentrant\n        mintCompliance(_receiver, cost, 1)\n        onlyMinter\n    {\n        _mintNFT(_receiver, _tokenURI);\n        emit MintForAddress(msg.sender, 1, _receiver);\n    }\n\n    //----------------------------------------------------------------------------\n    // External Only Admin / owner\n    /**\n     * @dev Set use of mint rules in contracty\n     *  Owner con contract can turn off / on the use of mint rules only\n     *\n     *  - Emits a {RuleUpdate} event.\n     */\n    function useUseMintRules(bool _state) external onlyOwner {\n        useMintRules = _state;\n        uint state = useMintRules ? uint(1) : uint(0);\n\n        emit RuleUpdate(\n            msg.sender,\n            string.concat(\"Setting mint rules: \", state.toString())\n        );\n    }\n\n    //----------------------------------------------------------------------------\n    // Internal Functions\n    function _checkMintSignature(\n        bytes memory _signature\n    ) internal returns (bool) {\n        require(\n            !_usedMintSignatures[_signature],\n            \"Signature already used, not valid anymore.\"\n        );\n\n        _usedMintSignatures[_signature] = true;\n        return true;\n    }\n}\n",
  "sourcePath": "/Users/marialemontenegro/Mentaport/Development/blockchain/EVM/development/truffle-project-dev/truffle/contracts/main/MentaportMint.sol",
  "compiler": {
    "name": "solc",
    "version": "0.8.17+commit.8df45f5f.Emscripten.clang"
  },
  "schemaVersion": "3.4.14",
  "updatedAt": "2023-08-16T01:07:17.067Z",
  "devdoc": {
    "details": "Extending MentaportERC721 Adds functionality to check rules of who, when and where user can mint NFT*",
    "kind": "dev",
    "methods": {
      "approve(address,uint256)": {
        "details": "See {IERC721-approve}."
      },
      "balanceOf(address)": {
        "details": "See {IERC721-balanceOf}."
      },
      "changeMentaportAccount(address)": {
        "details": "Change Mentaport account  - Emits a {MentaportAccount} event."
      },
      "getApproved(uint256)": {
        "details": "See {IERC721-getApproved}."
      },
      "getRoleAdmin(bytes32)": {
        "details": "Returns the admin role that controls `role`. See {grantRole} and {revokeRole}. To change a role's admin, use {_setRoleAdmin}."
      },
      "grantRole(bytes32,address)": {
        "details": "Grants `role` to `account`. If `account` had not been already granted `role`, emits a {RoleGranted} event. Requirements: - the caller must have ``role``'s admin role. May emit a {RoleGranted} event."
      },
      "hasRole(bytes32,address)": {
        "details": "Returns `true` if `account` has been granted `role`."
      },
      "isApprovedForAll(address,address)": {
        "details": "See {IERC721-isApprovedForAll}."
      },
      "mint(string)": {
        "details": "Mint function as in {ERC721}   - Follows `mintCompliance` from {MentaportERC721}   - Checks if the contact is using mint rules, if it is it will fail and       let caller know to use `MintMenta` instead."
      },
      "mintForAddress(string,address)": {
        "details": "MINTER_ROLE of contract mints 1 token for address `_receiver`, with `_tokenURI`  - Emits a {MintForAddress} event."
      },
      "mintLocation((bytes,uint256,uint256,address,string))": {
        "details": "mintLocation function controls signature of rules being passed   - Follows `mintCompliance` from {MentaportERC721}   - Checks `onlyValidMessage`       - signature approves time / location rule passed   - Checks that the signature ahsnt been used before"
      },
      "name()": {
        "details": "See {IERC721Metadata-name}."
      },
      "owner()": {
        "details": "Returns the address of the current owner."
      },
      "ownerOf(uint256)": {
        "details": "See {IERC721-ownerOf}."
      },
      "pause()": {
        "details": "Pause contract Requirements: - The contract must not be paused."
      },
      "paused()": {
        "details": "Returns true if the contract is paused, and false otherwise."
      },
      "renounceOwnership()": {
        "details": "Leaves the contract without owner. It will not be possible to call `onlyOwner` functions. Can only be called by the current owner. NOTE: Renouncing ownership will leave the contract without an owner, thereby disabling any functionality that is only available to the owner."
      },
      "renounceRole(bytes32,address)": {
        "details": "Revokes `role` from the calling account. Roles are often managed via {grantRole} and {revokeRole}: this function's purpose is to provide a mechanism for accounts to lose their privileges if they are compromised (such as when a trusted device is misplaced). If the calling account had been revoked `role`, emits a {RoleRevoked} event. Requirements: - the caller must be `account`. May emit a {RoleRevoked} event."
      },
      "revokeRole(bytes32,address)": {
        "details": "Revokes `role` from `account`. If `account` had been granted `role`, emits a {RoleRevoked} event. Requirements: - the caller must have ``role``'s admin role. May emit a {RoleRevoked} event."
      },
      "safeTransferFrom(address,address,uint256)": {
        "details": "See {IERC721-safeTransferFrom}."
      },
      "safeTransferFrom(address,address,uint256,bytes)": {
        "details": "See {IERC721-safeTransferFrom}."
      },
      "setApprovalForAll(address,bool)": {
        "details": "See {IERC721-setApprovalForAll}."
      },
      "setCost(uint256)": {
        "details": "Set cost of token at mint  - Emits a {SetCost} event."
      },
      "setMaxMintAmount(uint256)": {
        "details": "Set max mint amount  - Emits a {SetmaxMintAmount} event."
      },
      "symbol()": {
        "details": "See {IERC721Metadata-symbol}."
      },
      "tokenURI(uint256)": {
        "details": "See {IERC721Metadata-tokenURI}."
      },
      "totalSupply()": {
        "details": "Total supply of tokens currently available"
      },
      "transferFrom(address,address,uint256)": {
        "details": "See {IERC721-transferFrom}."
      },
      "transferOwnership(address)": {
        "details": "Transfers ownership of the contract to a new account (`newOwner`). Can only be called by the current owner."
      },
      "unpause()": {
        "details": "Unpause contract Requirements: - The contract must be paused."
      },
      "updateTokenURI(uint256,string)": {
        "details": "Update tokenURI for a toeknId already minted"
      },
      "useUseMintRules(bool)": {
        "details": "Set use of mint rules in contracty  Owner con contract can turn off / on the use of mint rules only  - Emits a {RuleUpdate} event."
      },
      "withdraw()": {
        "details": "Owner of contract withdraws funds.  At this point Mentaport account will get paid the commision of 97.5%.  - Emits a {Withdraw} event."
      }
    },
    "title": "MentaportMint",
    "version": 1
  },
  "userdoc": {
    "kind": "user",
    "methods": {},
    "version": 1
  }
}